:100000000C943E000C9453000C9453000C94530039
:100010000C9453000C9453000C9453000C94530014
:100020000C9453000C9453000C9453000C94530004
:100030000C9453000C9453000C9453000C945300F4
:100040000C9453000C9453000C9453000C945300E4
:100050000C9453000C9453000C9453000C945300D4
:100060000C9453000C9453000C9453000C945300C4
:100070000C9453000C9453000C94530011241FBE95
:10008000CFEFD8E0DEBFCDBF11E0A0E0B1E0EEE4FD
:10009000F1E002C005900D92A631B107D9F70E9498
:1000A0006E000C94A5000C9400001092C5008FEC1B
:1000B0008093C4001092C000E1ECF0E08081886180
:1000C0008083E2ECF0E080818660808308959091E7
:1000D000C00095FFFCCF8093C6000895EF92FF9279
:1000E0000F931F93CF93DF93CDB7DEB765970FB60E
:1000F000F894DEBF0FBECDBF0E94550085E1E0E061
:10010000F1E0DE01119601900D928A95E1F78E01E2
:100110000F5F1F4F7E0185E1E80EF11CF801819110
:100120008F010E946700E016F106C1F780E090E0C1
:1001300065960FB6F894DEBF0FBECDBFDF91CF91AD
:0E0140001F910F91FF90EF900895F894FFCF5C
:10014E004C6520726F626F7420656E20494E463189
:06015E003930300A0000F8
:00000001FF
