:100000000C943E000C9450000C9450000C94500042
:100010000C9450000C9450000C9450000C94500020
:100020000C9450000C9450000C9450000C94500010
:100030000C9450000C9450000C9450000C94500000
:100040000C9450000C9450000C9450000C945000F0
:100050000C9450000C9450000C9450000C945000E0
:100060000C9450000C9450000C9450000C945000D0
:100070000C9450000C9450000C94500011241FBE9E
:10008000CFEFD8E0DEBFCDBF21E0A0E0B1E001C0FE
:100090001D92A330B207E1F70E9411010C941D01DB
:1000A0000C94000089B182FB882780F991E08927B0
:1000B0000895823009F449C028F4882379F1813009
:1000C00099F10895843031F008F449C0853009F47D
:1000D0004FC0089580E09AEA482F50E02091010136
:1000E00030910201369527954217530708F04BC00F
:1000F00095B92FE73AE146E0215030404040E1F722
:1001000000C0000015B82FE73AE146E0215030402A
:100110004040E1F700C000008F5FDECF15B81092BD
:100120000201109201010895809101019091020154
:10013000019690930201809301018FEF90E722E0F6
:10014000815090402040E1F71CC085E585B93FEF24
:1001500044E38CE0315040408040E1F712C015B8D4
:100160009FEF23ED30E3915020403040E1F709C08C
:1001700085E585B94FEF89E698E141508040904090
:10018000E1F700C000000895CF93DF93FC01808168
:10019000823051F130F4EF01882351F08130C1F009
:1001A0003DC0843029F110F18530C1F5108236C090
:1001B0000E945200882391F18FE19EE40197F1F7AC
:1001C00000C000000E945200882341F181E025C058
:1001D0000E945200882379F08091010190910201E0
:1001E0008837910540F41AC083E003C084E001C061
:1001F00085E0808313C08FE19EE40197F1F700C092
:1002000000000E945200882339F0809101019091F2
:1002100002018837910510F082E08883DF91CF9149
:1002200008951AB88FEF84B9809100010E94590097
:0E02300080E091E00E94C400F7CFF894FFCF69
:00000001FF
