:100000000C943E000C94AA000C9450000C945000E8
:100010000C9450000C9450000C9450000C94500020
:100020000C9450000C9450000C9450000C94500010
:100030000C9450000C9450000C9450000C94500000
:100040000C9450000C9450000C9450000C945000F0
:100050000C9450000C9450000C9450000C945000E0
:100060000C9450000C9450000C9450000C945000D0
:100070000C9450000C9450000C94500011241FBE9E
:10008000CFEFD8E0DEBFCDBF21E0A0E0B1E001C0FE
:100090001D92A330B207E1F70E9400010C94050104
:1000A0000C940000F8941AB88FEF81B9E89AE9E649
:1000B000F0E08081816080837894089589B182FB2B
:1000C000882780F9089580910001823091F028F40A
:1000D000882349F0813059F00895843071F058F048
:1000E000853069F0089581E080930001089582E0F1
:1000F000FBCF83E0F9CF84E0F7CF85E0F5CF109216
:100100000001089580910001823011F128F48823C4
:10011000D1F0813039F008958430C1F0A0F08530FD
:10012000B9F0089585E582B98FE99FE00197F1F76D
:1001300000C000008AEA82B98FEC97E00197F1F7DE
:1001400000C0000008958AEA82B9089512B808959F
:1001500085E5FACF1F920F920FB60F9211242F93BD
:100160003F934F935F936F937F938F939F93AF933F
:10017000BF93EF93FF938FE59AEE0197F1F700C0DD
:1001800000000E945E00882399F080910201811195
:100190000FC08FE19EE40197F1F700C000000E94BC
:1001A0005E00882329F081E0809302010E946300B1
:1001B0000E945E00811112C080910201882371F0BB
:1001C0008FE19EE40197F1F700C000000E945E00FD
:1001D000811104C0109202010E946300E09AFF9115
:1001E000EF91BF91AF919F918F917F916F915F91AF
:1001F0004F913F912F910F900FBE0F901F90189528
:0E0200000E9452000E948200FDCFF894FFCFB2
:00000001FF
