:100000000C943E000C9448000C9448000C9448005A
:100010000C9448000C9448000C9448000C94480040
:100020000C9448000C9448000C9448000C94480030
:100030000C9448000C9448000C9448000C94480020
:100040000C9448000C9448000C9448000C94480010
:100050000C9448000C9448000C9448000C94480000
:100060000C9448000C9448000C9448000C944800F0
:100070000C9448000C9448000C94480011241FBEB6
:10008000CFEFD8E0DEBFCDBF0E9468000C94CD005A
:100090000C9400002FEF829FC001112464E670E0F1
:1000A0000E94A50077277093890060938800709361
:1000B0008B0060938A00E0E8F0E08081816F8083AC
:1000C000E1E8F0E0808182608083109282000895F0
:1000D0008FEF8AB91BB884E60E944A002FEF83EDA8
:1000E00090E3215080409040E1F700C000008BE495
:1000F0000E944A002FEF83ED90E321508040904012
:10010000E1F700C0000082E30E944A002FEF83ED78
:1001100090E3215080409040E1F700C000002FEFB5
:1001200083ED90E3215080409040E1F700C0000053
:1001300089E10E944A002FEF83ED90E32150804037
:100140009040E1F700C00000C6CF97FB072E16F4E1
:10015000009407D077FD09D00E94B90007FC05D0B4
:100160003EF4909581959F4F0895709561957F4FCE
:100170000895AA1BBB1B51E107C0AA1FBB1FA617EE
:10018000B70710F0A61BB70B881F991F5A95A9F740
:0E01900080959095BC01CD010895F894FFCFA5
:00000001FF
