:100000000C943E000C9453000C9453000C94530039
:100010000C9453000C9453000C9453000C94530014
:100020000C9453000C9453000C9453000C94530004
:100030000C9453000C9453000C9453000C945300F4
:100040000C9453000C9453000C9453000C945300E4
:100050000C9453000C9453000C9453000C945300D4
:100060000C9453000C9453000C9453000C945300C4
:100070000C9453000C9453000C94530011241FBE95
:10008000CFEFD8E0DEBFCDBF11E0A0E0B1E0ECE9FA
:10009000F4E002C005900D92A036B107D9F70E9496
:1000A000FE010C944C020C940000089580EA8093A9
:1000B00000011092B90080E28093B800089520E812
:1000C000FC0120830C945600982F9370891305C06F
:1000D000880F806A8093000108958FEF089594EA55
:1000E00024E89093BC008091BC0087FFFCCF8091F6
:1000F00000018093BB002093BC008091BC0087FF6F
:10010000FCCF8091B900883161F784EA8093BC000C
:100110008091BC0087FFFCCF809100018093BB00E1
:1001200084E88093BC008091BC0087FFFCCF709373
:10013000BB0084E88093BC008091BC0087FFFCCFAB
:100140006093BB0084E88093BC008091BC0087FF73
:10015000FCCF8091BC0087FFFCCF84EA8093BC0079
:100160008091BC0087FFFCCF809100018F5F80935E
:10017000BB0084E88093BC008091BC0087FFFCCF6B
:1001800084E88093BC008091BC0087FFFCCF809105
:10019000BB00FA01808384E98093BC0080E008956D
:1001A00094EA34E89093BC008091BC0087FFFCCFB8
:1001B000809100018093BB003093BC008091BC0013
:1001C00087FFFCCF8091B900883161F784EA809382
:1001D000BC008091BC0087FFFCCF80910001809320
:1001E000BB0084E88093BC008091BC0087FFFCCFFB
:1001F0007093BB0084E88093BC008091BC0087FFB3
:10020000FCCF6093BB0084E88093BC008091BC006D
:1002100087FFFCCF84EA8093BC008091BC0087FFFD
:10022000FCCF809100018F5F8093BB0084E88093B6
:10023000BC008091BC0087FFFCCFFA0184EC222334
:1002400071F0213009F484E88093BC009091BC00E7
:1002500097FFFCCF9091BB0091932150F0CF84E9A0
:100260008093BC0080E0089594EA24E89093BC0059
:100270008091BC0087FFFCCF809100018093BB0080
:100280002093BC008091BC0087FFFCCF8091B90017
:10029000883161F784EA8093BC008091BC0087FFBD
:1002A000FCCF809100018093BB0084E88093BC0068
:1002B0008091BC0087FFFCCF7093BB0084E88093E3
:1002C000BC008091BC0087FFFCCF6093BB0084E83A
:1002D0008093BC008091BC0087FFFCCF4093BB00A3
:1002E00084E88093BC008091BC0087FFFCCF84E948
:1002F0008093BC0080E00895FB01E20FF11DDC015A
:100300002C9130E021503109262B372BE217F307CF
:1003100010F0F90131968E2F861B24EA34E82093E1
:10032000BC009091BC0097FFFCCF9091000190938E
:10033000BB003093BC009091BC0097FFFCCF909124
:10034000B900983161F794EA9093BC009091BC0099
:1003500097FFFCCF909100019093BB0094E890939D
:10036000BC009091BC0097FFFCCF7093BB0094E859
:100370009093BC009091BC0097FFFCCF6093BB00B2
:1003800094E89093BC009091BC0097FFFCCFFA01D9
:10039000982F24E8992359F031913093BB00209392
:1003A000BC003091BC0037FFFCCF9150F3CF94E9F3
:1003B0009093BC000895CF92DF92EF92FF921F932B
:1003C000CF93DF936C017A01122FEB01212FA7014C
:1003D000BE01C6010E947C01282F30E0C20FD31F4E
:1003E000181BE20EF31E1111F1CF80E0DF91CF91C7
:1003F0001F91FF90EF90DF90CF900895CF93DF9300
:10040000CDB7DEB7E0970FB6F894DEBF0FBECDBF15
:100410008FEF81B9CE01C0960E945F002FE241E3C9
:1004200051E060E070E0CE01C0960E94DB018FE1F8
:100430009EE40197F1F700C000002FE2AE014F5F8C
:100440005F4F60E070E0CE01C0960E94D0008091C6
:100450000101E1E3F1E0A2E0B1E021919D912913D6
:1004600080E091E0E036F907C1F78093010188232D
:1004700011F085E501C08AEA82B9CE01C0960E94DA
:10048000550080E090E0E0960FB6F894DEBF0FBE16
:0C049000CDBFDF91CF910895F894FFCF0D
:10049C00A0012A502A4F2A4C2A592A542A452A4369
:1004AC002A6B2A4E2A492A512A552A452A202A4D96
:1004BC002A4F2A4E2A542A522A452A412A4C2A00CB
:1004CC00002A502A4F2A4C2A592A542A452A432AB0
:1004DC00482A4E2A492A512A552A452A202A4D2A89
:1004EC004F2A4E2A542A522A452A412A4C2A0000C5
:00000001FF
