:100000000C943E000C946B000C9450000C94500027
:100010000C9450000C9450000C9450000C94500020
:100020000C9450000C9450000C9450000C94500010
:100030000C9450000C945C000C9450000C945000F4
:100040000C9450000C9450000C9450000C945000F0
:100050000C9450000C9450000C9450000C945000E0
:100060000C9450000C9450000C9450000C945000D0
:100070000C9450000C9450000C94500011241FBE9E
:10008000CFEFD8E0DEBFCDBF21E0A0E0B1E001C0FE
:100090001D92A230B207E1F70E948D000C94C100BE
:1000A0000C940000F8941AB88FEF81B981E08DBBF1
:1000B00080936900789408951F920F920FB60F9263
:1000C00011248F9381E0809301018F910F900FBED7
:1000D0000F901F9018951F920F920FB60F92112438
:1000E0008F9381E0809300018F910F900FBE0F904E
:1000F0001F901895109285001092840090938900AB
:1001000080938800109280008DE08093810010928F
:10011000820082E080936F0008950E9452002FEFCA
:1001200089E698E1215080409040E1F700C000004E
:100130008AEA82B92FEF80E792E021508040904018
:10014000E1F700C0000012B878948CE89EE10E94AC
:100150007A0080910101811104C0809100018823FF
:10016000C1F3F89480910101813011F48AEA05C04D
:1001700080910001813011F485E582B980E090E042
:060180000895F894FFCF82
:00000001FF
