:100000000C943E000C9448000C9448000C9448005A
:100010000C9448000C9448000C9448000C94480040
:100020000C9448000C9448000C9448000C94480030
:100030000C9448000C9448000C9448000C94480020
:100040000C9448000C9448000C9448000C94480010
:100050000C9448000C9448000C9448000C94480000
:100060000C9448000C9448000C9448000C944800F0
:100070000C9448000C9448000C94480011241FBEB6
:10008000CFEFD8E0DEBFCDBF0E9476000C94A50074
:100090000C94000010927C0086E880937A0008950A
:1000A00010927A00089580917C00807E80937C007D
:1000B00080917C006770682B60937C0080917A004F
:1000C000806480937A0080917A0084FFFCCF8091D5
:1000D0007A00806180937A00209178008091790085
:1000E00090E0982F8827820F911D0895CF93DF937A
:1000F0001F92CDB7DEB711B88FEF84B9CE0101964C
:100100000E944A001AEA05E560E0CE0101960E94CD
:100110005300863525E5920710F405B9F5CF8655CD
:1001200095458535954578F405B98FE99FE00197A8
:10013000F1F700C0000015B98FEC97E00197F1F7D7
:0E01400000C00000E1CF15B9DFCFF894FFCF6B
:00000001FF
